:020000040800F2
:10000000C0120020450100083B240008F12300082D
:1000100039240008DD010008D92A0008000000008A
:100020000000000000000000000000005701000870
:10003000DF010008000000005B0100084125000806
:100040005F0100085F0100085F0100085F01000810
:100050005F0100085F0100085F0100085F01000800
:100060005F0100085F0100085F0100085F010008F0
:100070005F0100085F0100085F0100085F010008E0
:100080005F0100085F0100085F0100085F010008D0
:100090005F0100085F0100085F0100085F010008C0
:1000A0005F0100085F0100085F0100085F010008B0
:1000B000F52500085F0100085F0100085F010008E6
:1000C0005F0100085F0100085F0100085F01000890
:1000D0005F0100085F0100085F010008A92A00080D
:1000E0005F0100085F0100085F0100085F01000870
:1000F0005F0100085F0100085F0100085F01000860
:100100005F0100085F0100085F0100085F0100084F
:100110005F0100085F0100085F0100085F0100083F
:100120005F0100085F0100085F0100085F0100082F
:10013000DFF80CD000F040F8004800471536000802
:10014000C01200200648804706480047FEE7FEE749
:10015000FEE7FEE7FEE7FEE7FEE7FEE7FEE7FEE777
:10016000AD2500083101000840EA01039B0703D0D8
:1001700009E008C9121F08C0042AFAD203E011F8E6
:10018000013B00F8013B521EF9D2704730B50B46D7
:10019000014600202022012409E021FA02F59D42B7
:1001A00005D303FA02F5491B04FA02F52844151E8B
:1001B000A2F10102F1DC30BD064C074D06E0E0681B
:1001C00040F0010394E8070098471034AC42F6D39E
:1001D000FFF7B2FF6C3E00088C3E0008FEE7FEE72A
:1001E00010B586B00E484FF08041016041F61F41C6
:1001F0004160002484603221C160046101F0C2FAD0
:100200004FF48050029002A9054801F00BFC0094C5
:1002100001946946024801F023FA06B010BD0000BF
:100220002401002031B500F0F9F9044600F0F6F998
:100230000099001B8842F9D338BD00002DE9F84F22
:1002400004460D460027DFF8E8A2DFF8E8B254457F
:1002500014D05C4512D0B84884420FD0B7488442CD
:100260000CD0B748844209D0B648844206D0B6487C
:10027000844203D0CF21B5A002F02CFD28880004D1
:10028000000C03D1D021B1A002F024FD6868F8B1C0
:1002900001281DD011281BD0022819D0122817D0F0
:1002A000B949884214D0B949884211D0B849884226
:1002B0000ED0B84988420BD0B749884208D0B74918
:1002C000884205D0032803D0D121A0A002F002FD6E
:1002D0004FF000084FF0010909FA08F92E6806EA04
:1002E00009064E4574D1544514D05C4512D092484D
:1002F00084420FD0914884420CD09148844209D066
:100300009048844206D09048844203D0DF218FA0D9
:1003100002F0E0FC9C4A6868811A904259D00EDCD9
:10032000032870D006DC002853D0012819D00228F9
:100330006AD131E0112821D0122865D13AE0B1F517
:10034000881F46D006DCB1F5803F42D0B1F5801F52
:100350005AD13EE0B1F5001F3BD0B1F5041F53D197
:1003600037E0E868022807D0012805D0032803D029
:10037000E72176A002F0AEFCEF6845E0E8680228CD
:1003800007D0012805D0032803D0EE216FA002F08A
:10039000A1FCEF683F1D37E0E868022807D001287C
:1003A00005D0032803D0F52168A002F093FCEF6884
:1003B000083729E0E868022807D0012805D003287B
:1003C00003D0FC2161A002F085FCEF680C371BE034
:1003D0009FE0A86840B1012806D0022804D040F26E
:1003E00009115AA002F076FCA86828B1012805D0AE
:1003F0000827C4F8149007E0042705E00827C4F88C
:10040000109001E0FFE70027FF2E01D8204601E011
:1004100004F1040002D84FEA880103E0A8F10801C2
:100420004FEA8101D0F800C04FF00F0303FA01F248
:100430002CEA020C07FA01F24CEA020CC0F800C0E8
:100440006868C0006BD55648816941F0010181613F
:10045000806900F001000090524828F003010A185A
:10046000D2F808C04FEA8870010F8B402CEA030CC9
:10047000544501D1002018E05C4501D1012014E071
:100480002D48844201D102200FE02C48844201D142
:1004900003200AE02A48844201D1042005E02948CB
:1004A000844201D1052000E00620884040EA0C008B
:1004B00090606868C00304D53B4908683043086011
:1004C00003E039480168B14301606868800305D5DD
:1004D0003548001D01683143016004E03248001DC9
:1004E0000168B14301606868C00205D52E48083034
:1004F00001683143016004E02B4808300168B143D2
:1005000001606868800205D527480C3001683143D6
:10051000016004E024480C300168B143016008F137
:100520000108B8F1100FFFF4D5AEBDE8F88F000058
:1005300000080140000C014000100140001401407F
:1005400000180140001C0140002001402E2E2F44C5
:100550007269766572732F53544D33324631787811
:100560005F48414C5F4472697665722F5372632F06
:1005700073746D3332663178785F68616C5F677071
:10058000696F2E63000000000000111000002110B0
:100590000000311000001210000022100000321084
:1005A00000100240000001400004014070B5064602
:1005B0000C461546002C04D14FF4F27108A002F04D
:1005C00089FB35B1012D04D040F2E51104A002F001
:1005D00081FB0DB1346170BD2004306170BD00003D
:1005E0002E2E2F447269766572732F53544D333219
:1005F000463178785F48414C5F4472697665722F66
:100600005372632F73746D3332663178785F68612B
:100610006C5F6770696F2E6300000000014800681E
:10062000704700000400002002480168491C016076
:10063000704700000400002010B50748016841F031
:1006400010010160032000F0D7F8002000F006F848
:1006500000F016F8002010BD0020024010B504463E
:1006600000F00EFB4FF47A72B0FBF2F000F0DDFF09
:1006700000222146501E00F06FF8002010BD00003F
:1006800008B51548816941F001018161806900F078
:1006900001000090052000F0AFF8002211466FF035
:1006A0000B0000F059F8002211466FF00A0000F02C
:1006B00053F8002211466FF0090000F04DF80022B7
:1006C0001146101F00F048F80022BDE8084011460E
:1006D000501E00F041B800000010024000F01F0260
:1006E000012191404009800000F1E020C0F8801213
:1006F0007047000010B50446002C03DAE62107A07D
:1007000002F0E8FA04F01F01012088406109890025
:1007100001F1E021C1F8000110BD00002E2E2F4490
:100720007269766572732F53544D3332463178783F
:100730005F48414C5F4472697665722F5372632F34
:1007400073746D3332663178785F68616C5F636FA4
:10075000727465782E6300002DE9F04107460D465E
:100760001646102E03D3D22113A002F0B3FA102D97
:1007700003D3D32110A002F0ADFA1E480068C0F3E5
:100780000223C3F10704042C00D90424181D0728F0
:1007900001D2002300E0DB1E012000FA04F1491E13
:1007A000294099409840401E304001433846BDE8FA
:1007B000F04101F043BE00002E2E2F447269766591
:1007C00072732F53544D3332463178785F48414C21
:1007D0005F4472697665722F5372632F73746D3341
:1007E00032663178785F68616C5F636F72746578C8
:1007F0002E6300000CED00E010B50446072C0BD072
:10080000062C09D0052C07D0042C05D0032C03D0CE
:10081000BA2108A002F05EFA04F00701144A106839
:100820004FF6FF03184040EA0120124908431060C8
:1008300010BD00002E2E2F447269766572732F53FF
:10084000544D3332463178785F48414C5F44726989
:100850007665722F5372632F73746D3332663178FD
:10086000785F68616C5F636F727465782E630000F7
:100870000CED00E00000FA052DE9F05F04460E469D
:10088000002C04D140F2CA21EDA002F023FA206826
:10089000C1070AD1810708D4410706D4000704D450
:1008A00040F2CB21E6A002F015FA46B1012E06D0A7
:1008B000022E04D04FF43371E1A002F00BFADFF8FE
:1008C000B893D9F80000012700F00700EB4D4FF472
:1008D000003A4FF0007B41F28838B04279D2D9F823
:1008E000000020F007003043C9F80000D9F80000EC
:1008F00000F00700B04202D00120BDE8F09F207850
:1009000080071CD5A068A0B1802812D0902810D0F4
:10091000A0280ED0B0280CD0C0280AD0D02808D0EB
:10092000E02806D0F02804D04FF43971C4A002F0BA
:10093000D1F96868A16820F0F00008436860207869
:10094000C0076DD0606840B1012806D0022804D0ED
:1009500040F2EB21BAA002F0BDF9606801280CD08A
:10096000022820D0022292FAA2F1B1FA81F141F0DC
:10097000200149092ED029682DE09AFAAAF1B1FA8E
:1009800081F141F02001490901D0296800E0696A3C
:100990009AFAAAF2B2FA82F202F01F0297403942A2
:1009A00024D10120A9E79BFAABF1B1FA81F141F022
:1009B0002001490901D0296800E0696A9BFAABF27D
:1009C000B2FA82F202F01F02974039420ED10120A2
:1009D00093E73FE0696A92FAA2F2B2FA82F202F079
:1009E0001F029740394201D1012086E7696821F052
:1009F000030101436960FFF711FE064660680128A4
:100A000009D0022814D020E0FFF708FE801B4045E3
:100A100001D9032071E76868C0F381000128F3D190
:100A2000D0E0FFF7FBFD801B404501D9032064E7C0
:100A30006868C0F381000228F3D1C3E0FFF7EEFD40
:100A4000801B404501D9032057E7686810F00C0F60
:100A5000F4D1B7E0207880071CD5A068A0B1802829
:100A600012D0902810D0A0280ED0B0280CD0C028CA
:100A70000AD0D02808D0E02806D0F02804D04FF4BF
:100A80004D716FA002F026F96868A16820F0F000AF
:100A9000084368602078C0076CD0606840B10128C6
:100AA00006D0022804D040F23B3165A002F012F9D2
:100AB000606801280CD0022820D0022292FAA2F10C
:100AC000B1FA81F141F0200149092DD029682CE0CB
:100AD0009AFAAAF1B1FA81F141F02001490901D055
:100AE000296800E0696A9AFAAAF2B2FA82F202F080
:100AF0001F029740394223D10120FEE69BFAABF159
:100B0000B1FA81F141F02001490901D0296800E0E2
:100B1000696A9BFAABF2B2FA82F202F01F029740C6
:100B200039420DD10120E8E6696A92FAA2F2B2FADE
:100B300082F202F01F029740394201D10120DCE627
:100B4000696821F0030101436960FFF767FD07460B
:100B50006068012809D0022814D020E0FFF75EFD6C
:100B6000C01B404501D90320C7E66868C0F3810077
:100B70000128F3D117E0FFF751FDC01B404501D913
:100B80000320BAE66868C0F381000228F3D10AE0C6
:100B9000FFF744FDC01B404501D90320ADE668685E
:100BA00010F00C0FF4D1D9F8000020F0070030430A
:100BB000C9F80000D9F8000000F00700B04201D0E9
:100BC00001209AE620784FF4806640074FF4A06732
:100BD0004FF4C0684FF4E06914D5E06860B1B042EA
:100BE0000AD0B84208D0404506D0484504D04FF45A
:100BF000637113A002F06EF86868E16820F4E060A9
:100C0000084368602078000715D5206960B1B042BC
:100C10000AD0B84208D0404506D0484504D040F23A
:100C2000933107A002F056F86868216920F46050FB
:100C300040EAC10068600020FFF710FD00205CE67C
:100C40002E2E2F447269766572732F53544D3332B2
:100C5000463178785F48414C5F4472697665722FFF
:100C60005372632F73746D3332663178785F6861C5
:100C70006C5F7263632E630000200240001002402C
:100C800000B500F043F808494968F02292FAA2F250
:100C900001F0F001B2FA82F2D140044A515CC8403E
:100CA0000349086000BD0000001002405C3C0008E1
:100CB0000000002000B5FFF7E3FF074949684FF443
:100CC000E06292FAA2F201F4E061B2FA82F2D1405B
:100CD000024A515CC84000BD001002405C3C000864
:100CE00000B5FFF7CDFF074949684FF4605292FA0B
:100CF000A2F201F46051B2FA82F2D140024A515C90
:100D0000C84000BD001002405C3C000810B585B032
:100D10001AA0D0E90031D0E90220CDE90131CDE9B6
:100D200003201AA000680090194B5968194801F077
:100D30000C02042A1DD0082A1BD14FF4701494FA17
:100D4000A4F401F47012B4FA84F4E24001ACA25CA1
:100D5000C90310D559684FF4003393FAA3F301F493
:100D60000031B3FA83F3D9401DF80110B0FBF1F064
:100D7000504305B010BD08485043FAE7020304058C
:100D8000060708090A0B0C0D0E0F101001020000D7
:100D90000010024000127A0000093D002DE9F84FD2
:100DA0000446002C03D1FE21F2A001F093FF20683D
:100DB00058B1C10709D1810707D4010705D44007FD
:100DC00003D4FF21EBA001F085FF2078F74DC00789
:100DD0004FF0010673D060684FF4A02A48B1B0F517
:100DE000803F06D0504504D040F20511E1A001F04B
:100DF00071FF6868C0F38100012807D06868C0F3FC
:100E0000810002281FD16868C0031CD54FF400314F
:100E100091FAA1F0B0FA80F040F02000400901D032
:100E2000286800E0686A91FAA1F1B1FA81F101F055
:100E30001F0106FA01F1084241D0606800283ED146
:100E40000120BDE8F88F286820F4803028602868E9
:100E500020F480202860FFF7E1FB81464FF4003743
:100E600007E0FFF7DBFBA0EB0900642801D90320B2
:100E7000E7E797FAA7F0B0FA80F040F020004009C9
:100E800001D0286800E0686A97FAA7F1B1FA81F109
:100E900001F01F0106FA01F1B0460842E1D1606895
:100EA000B0F5803F0CD080B1504517D1286840F490
:100EB00080202860286840F48030286016E05AE0DE
:100EC000286840F48030286010E0286820F48030E2
:100ED0002860286820F48020286007E0286820F433
:100EE00080302860286820F480202860606808B37B
:100EF000FFF794FB814607E0FFF790FBA0EB0900AA
:100F0000642801D903209CE797FAA7F0B0FA80F093
:100F100040F02000400901D0286800E0686A97FA94
:100F2000A7F1B1FA81F101F01F0208FA02F10842BB
:100F3000E2D020E0FFF772FB814607E0FFF76EFB8F
:100F4000A0EB0900642801D903207AE797FAA7F0FB
:100F5000B0FA80F040F02000400901D0286800E09D
:100F6000686A97FAA7F1B1FA81F101F01F0108FA56
:100F700001F10842E2D12078DFF8348280074FF097
:100F8000000B4FF0020743D5206930B1012804D08F
:100F90004FF4A47177A001F09DFE60691F2804D969
:100FA00040F2491173A001F095FE68684FF0F80A0D
:100FB00010F00C0F07D06868C0F38100022828D118
:100FC0006868C00325D497FAA7F0B0FA80F040F023
:100FD0002000400901D0286800E0686A97FAA7F16C
:100FE000B1FA81F101F01F0106FA01F1084204D0C3
:100FF0002069012801D0012023E728689AFAAAF283
:101000006169B2FA82F220F0F8009140084328604A
:101010005CE0206990B396FAA6F0B0FA80F048F848
:101020002060FFF7FBFA814607E0FFF7F7FAA0EB35
:101030000900022801D9032003E797FAA7F0B0FAC4
:1010400080F040F02000400901D0286800E0686A84
:1010500097FAA7F1B1FA81F101F01F0106FA01F147
:101060000842E2D028689AFAAAF26169B2FA82F2DA
:1010700020F0F80091400843286027E0FFE796FA47
:10108000A6F0B0FA80F048F820B0FFF7C7FA814622
:1010900007E0FFF7C3FAA0EB0900022801D90320FB
:1010A000CFE697FAA7F0B0FA80F040F020004009B0
:1010B00001D0286800E0686A97FAA7F1B1FA81F1D7
:1010C00001F01F0106FA01F10842E2D12078000781
:1010D00042D5A06930B1012804D040F2891125A081
:1010E00001F0F8FDA069C0B396FAA6F0B0FA80F05E
:1010F00008EB8000C0F88064FFF790FA814607E0B3
:10110000FFF78CFAA0EB0900022801D9032098E62A
:1011100097FAA7F0B0FA80F040F06000B6EB501FED
:1011200001D128680BE097FAA7F0B0FA80F040F000
:101130006000B7EB501F01D1286A00E0686A97FA97
:10114000A7F1B1FA81F101F01F0206FA02F108429B
:10115000D6D00120FFF766F855E0FFE796FAA6F033
:10116000B0FA80F008EB8000C0F880B4FFF756FAC0
:10117000814627E02E2E2F447269766572732F53B5
:10118000544D3332463178785F48414C5F44726940
:101190007665722F5372632F73746D3332663178B4
:1011A000785F68616C5F7263632E630000100240B9
:1011B00000004242FFF732FAA0EB0900022801D9F1
:1011C00003203EE697FAA7F0B0FA80F040F0600006
:1011D000B6EB501F01D128680BE097FAA7F0B0FAE0
:1011E00080F040F06000B7EB501F01D1286A00E0AA
:1011F000686A97FAA7F1B1FA81F101F01F0206FAC5
:1012000002F10842D6D12078400776D5E06848B18F
:10121000012807D0052805D04FF4DB71AFF2AC00F0
:1012200001F058FDE86940F08050E861E86900F09D
:1012300080500090DFF880A3DAF8000040F480705E
:10124000CAF80000FFF7EAF9814607E0FFF7E6F980
:10125000A0EB0900642801D90320F2E5DAF80000C8
:10126000C005F3D5286A20F001002862286A20F022
:1012700004002862FFF7D2F9814641F2883A07E07C
:10128000FFF7CCF9A0EB0900504501D90320D8E5C0
:1012900097FAA7F0B0FA80F040F04000B6EB501F8C
:1012A00001D128680BE097FAA7F0B0FA80F040F07F
:1012B0004000B7EB501F01D1286A00E0686A97FA36
:1012C000A7F1B1FA81F101F01F0106FA01F108421C
:1012D000D6D1E068012811D0A8B105281CD0286A11
:1012E00020F001002862286A20F004002862E068EB
:1012F000C8B3FFF793F981461FE06EE0286A40F01B
:1013000001002862F3E7286A20F001002862286AB9
:1013100020F004002862EAE7286A40F0040028620E
:10132000286A40F001002862E1E7FFF777F9A0EBB7
:101330000900504501D9032083E597FAA7F0B0FAD8
:1013400080F040F04000B6EB501F01D128680CE05F
:1013500097FAA7F0B0FA80F040F04000B7EB501FCA
:1013600002D1286A01E00BE0686A97FAA7F1B1FAA6
:1013700081F101F01F0206FA02F10842D5D02CE0FB
:10138000FFF74CF9814607E0FFF748F9A0EB0900A9
:10139000504501D9032054E597FAA7F0B0FA80F040
:1013A00040F04000B6EB501F01D128680BE097FADF
:1013B000A7F0B0FA80F040F04000B7EB501F01D129
:1013C000286A00E0686A97FAA7F1B1FA81F101F0A2
:1013D0001F0206FA02F10842D6D1E06948B101289D
:1013E00007D0022805D040F25521AFF2782001F055
:1013F00071FCE06900287DD06968C1F38101022990
:1014000079D04FF080794FF00077022809D099FA0F
:10141000A9F0B0FA80F048F820B0FFF7FFF80446D2
:10142000B1E0206A40B1B0F5803F05D040F25E21C6
:10143000AFF2C02001F04EFC606A78B3B0F5802FA7
:101440002CD0B0F5002F29D0B0F5402F26D0B0F524
:10145000801F23D0B0F5A01F20D0B0F5C01F1DD035
:10146000B0F5E01F1AD0B0F5001F17D0B0F5101F6F
:1014700014D0B0F5201F11D0B0F5301F0ED0B0F54C
:10148000401F0BD0B0F5501F08D0B0F5601F05D03D
:1014900040F25F21AFF2243001F01CFC99FAA9F070
:1014A000B0FA80F048F820B0FFF7B8F8824607E0BD
:1014B000FFF7B4F8A0EB0A00022801D90320C0E42A
:1014C00097FAA7F0B0FA80F040F02000400901D070
:1014D000286800E0686A97FAA7F1B1FA81F101F093
:1014E0001F0106FA01F10842E2D1206AB0F5803FFF
:1014F00013D101E05CE05DE0A06840B1B0F5003FD1
:1015000005D040F27521AFF2943001F0E3FB68683A
:10151000A16820F4003008436860D4E9080108435A
:10152000696821F474110843686099FAA9F0B0FA67
:1015300080F048F82060FFF771F8044606E0FFF7F6
:101540006DF8001B022801D903207AE497FAA7F06E
:10155000B0FA80F040F02000400901D0296800E096
:10156000696A97FAA7F0B0FA80F000F01F0006FA57
:1015700000F00142E3D01BE0FFF750F8001B022807
:1015800001D903205DE497FAA7F0B0FA80F040F0AB
:101590002000400901D0296800E0696A97FAA7F0A5
:1015A000B0FA80F000F01F0006FA00F00142E3D12B
:1015B000002046E4012044E40070004010B50446D9
:1015C000042C05D024B14FF4DF7108A001F082FB98
:1015D0004FF0E020042C04D0016921F004010161E6
:1015E00010BD016941F00401016110BD2E2E2F4490
:1015F0007269766572732F53544D33324631787861
:101600005F48414C5F4472697665722F5372632F55
:1016100073746D3332663178785F68616C5F636FC5
:10162000727465782E630000704710B5401EB0F1EB
:10163000807F01D3012010BD4FF0E02460610F21B5
:10164000601700F0FBFE0020A06107202061002051
:1016500010BD10B5FFF7E8FF10BD704770470000E0
:1016600070B504460D4631492068884219D030498A
:10167000884216D0B0F1804F13D02E49884210D046
:101680002D4988420DD02D4988420AD02C498842E4
:1016900007D02C49884204D040F28C612AA001F086
:1016A00019FB286890B1102810D020280ED03028BF
:1016B0000CD040280AD0502808D0602806D07028C6
:1016C00004D040F28D6120A001F004FB68688028FE
:1016D00005D020B140F28E611BA001F0FBFA94F816
:1016E000380001281FD0012184F83810022084F826
:1016F00039002068426822F0700242602068426827
:101700002B681A4342602068826822F0800282605F
:10171000206882686B681A43826084F83910002060
:1017200084F8380070BD022070BD0000002C01401C
:10173000003401400004004000080040000C00405C
:1017400000100040001400402E2E2F447269766570
:1017500072732F53544D3332463178785F48414C81
:101760005F4472697665722F5372632F73746D33A1
:1017700032663178785F68616C5F74696D5F657837
:101780002E63000010B50446002C3AD0274920688B
:10179000884218D02649884215D0B0F1804F12D027
:1017A000244988420FD0244988420CD023498842DA
:1017B00009D02349884206D02249884203D0D72144
:1017C00021A001F087FAA06858B1102809D020287C
:1017D00007D0402805D0602803D0D8211AA001F0F6
:1017E00079FA206948B1B0F5807F06D0B0F5007F66
:1017F00003D0D92114A001F06DFA94F8390010B18A
:1018000007E0012010BD002084F83800204600F0D9
:1018100037F8022084F83900211D206800F0F6FE18
:10182000012084F83900002010BD0000002C014088
:10183000003401400004004000080040000C00405B
:1018400000100040001400402E2E2F44726976656F
:1018500072732F53544D3332463178785F48414C80
:101860005F4472697665722F5372632F73746D33A0
:1018700032663178785F68616C5F74696D2E6300E1
:1018800008B50068B0F1804F12D10A48C16941F033
:101890000101C161C06900F0010000900022012136
:1018A0001C20FEF759FFBDE808401C20FEF722BFB0
:1018B00008BD00000010024010B50446144821681D
:1018C000814219D01348814216D0B1F1804F13D014
:1018D0001148814210D0114881420DD010488142F8
:1018E0000AD01048814207D00F48814204D04FF4FB
:1018F000AF710EA001F0EEF92068C16841F001015E
:10190000C1602068016841F001010160002010BD44
:10191000002C014000340140000400400008004059
:10192000000C004000100040001400402E2E2F44F8
:101930007269766572732F53544D3332463178781D
:101940005F48414C5F4472697665722F5372632F12
:1019500073746D3332663178785F68616C5F746977
:101960006D2E630010B5044619482168814219D0D4
:101970001848814216D0B1F1804F13D016488142E9
:1019800010D0164881420DD0154881420AD0154822
:10199000814207D01448814204D04FF4B97113A09A
:1019A00001F098F92068C16821F00101C160206848
:1019B000016A41F21112114207D1016A92101142DB
:1019C00003D1016821F001010160002010BD000079
:1019D000002C014000340140000400400008004099
:1019E000000C004000100040001400402E2E2F4438
:1019F0007269766572732F53544D3332463178785D
:101A00005F48414C5F4472697665722F5372632F51
:101A100073746D3332663178785F68616C5F7469B6
:101A20006D2E63002DE9F05F04460D4694F83800F2
:101A3000012840D04FF0010984F83890022084F842
:101A4000390028684FF480574FF40058B84215D039
:101A5000404513D090B1102810D020280ED0302847
:101A60000CD040280AD0502808D0602806D0702812
:101A700004D040F64B71E6A001F02CF92068816893
:101A800021F0770121F47F418160F14B2868EE4914
:101A9000EE4ADFF8C0C3DFF8C0A3DE134FF0804B7F
:101AA000502877D00FDC202875D007DC002873D0B1
:101AB000102850D161E10220BDE8F09F30286CD0A1
:101AC0004028F6D111E1602868D0702868D0B8426B
:101AD00042D04045EDD1206888420ED090420CD0D3
:101AE00058450AD0984208D0604506D0504504D0E9
:101AF00040F67A71C6A001F0EDF8A86858B1B84276
:101B000009D0404507D0B0F5405F04D040F67D7164
:101B1000BFA001F0DFF86868B04209D040B10228E8
:101B200006D00A2804D040F67E71B9A001F0D2F8A0
:101B3000E8680F2804D940F67F71B5A001F0CAF813
:101B4000D5E902136A68206800F0A4FD2068816866
:101B500041F48041816054E12068884214D0904271
:101B600012D0584510D098420ED060450CD0504548
:101B70000AD0BA49884207D0B949884204D040F611
:101B80005771A3A001F0A6F82068816821F0070131
:101B9000816036E147E007E1D8E01CE174E0FFE74F
:101BA000206888420ED090420CD058450AD0984206
:101BB00008D0604506D0504504D04FF4766194A01B
:101BC00001F088F8A86858B1B84209D0404507D05C
:101BD000B0F5405F04D040F663718DA001F07AF853
:101BE0006868B04209D040B1022806D00A2804D063
:101BF00040F6647186A001F06DF8E8680F2804D9FA
:101C000040F6657182A001F065F8D5E902136A68B3
:101C1000206800F03FFD2068816821F0770141F0E5
:101C200077018160EDE0206888420ED090420CD0B0
:101C300058450AD0984208D0604506D0504504D097
:101C400040F68E7172A001F045F86868B04209D084
:101C500040B1022806D00A2804D040F691716CA049
:101C600001F038F8E8680F2804D940F6927168A0AE
:101C700001F030F8EA686968206800F01DFD502125
:101C8000206800F011FDBCE0206888420ED0904230
:101C90000CD058450AD0984208D0604506D050452F
:101CA00004D040F69D715AA001F014F86868B04263
:101CB00009D040B1022806D00A2804D04FF47A6136
:101CC00053A001F007F8E8680F2804D940F6A17185
:101CD0004FA000F0FFFFEA686968206800F0FDFC93
:101CE0006021206800F0E0FC8BE0206888420ED084
:101CF00090420CD058450AD0984208D0604506D092
:101D0000504504D040F6AC7141A000F0E3FF686894
:101D1000B04209D040B1022806D00A2804D040F6CB
:101D2000AF713BA000F0D6FFE8680F2804D94FF44C
:101D30007B6137A000F0CEFFEA686968206800F098
:101D4000BBFC4021206800F0AFFC5AE020688842CC
:101D50000ED090420CD058450AD0984208D0604529
:101D600006D0504504D040F6BB7129A000F0B2FF68
:101D70000021206800F098FC43E0206888420ED0E3
:101D800090420CD058450AD0984208D0604506D001
:101D9000504504D040F6C3711DA000F09BFF1021F8
:101DA000206800F081FC2CE0206888420ED0904230
:101DB0000CD058450AD0984208D0604506D050450E
:101DC00004D040F6CB7112A000F084FF20212068DF
:101DD00000F06AFC15E0206888420ED090420CD0DA
:101DE00058450AD0984208D0604506D0504504D0E6
:101DF00040F6D37106A000F06DFF3021206800F09E
:101E000053FC84F83990002084F8380054E6000030
:101E10002E2E2F447269766572732F53544D3332D0
:101E2000463178785F48414C5F4472697665722F1D
:101E30005372632F73746D3332663178785F6861E3
:101E40006C5F74696D2E6300002C0140003401400A
:101E50000004004000080040000C0040001000405A
:101E600000140040704770B50446206801694FF0C7
:101E70000005C943890716D4C168C943890712D42C
:101E8000E91E01610120207620688069800703D067
:101E90002046FFF7E7FF05E0204600F09BF82046CC
:101EA00000F099F8257620680169C943490718D4DC
:101EB000C168C943490714D46FF0040101610220CD
:101EC00020762068806910F4407F03D02046FFF719
:101ED000C9FF05E0204600F07DF8204600F07BF8C1
:101EE000257620680169C943090717D4C168C94329
:101EF000090713D46FF008010161042020762068DF
:101F0000C069800703D02046FFF7ACFF05E02046FC
:101F100000F060F8204600F05EF825762068016940
:101F2000C943C90618D4C168C943C90614D46FF09F
:101F300010010161082020762068C06910F4407FFC
:101F400003D02046FFF78EFF05E0204600F042F860
:101F5000204600F040F8257620680169C943C9078A
:101F600008D1C168C943C90704D1891E016120464F
:101F700000F032F820680169C943090609D4C16834
:101F8000C943090605D46FF0800101612046FFF7BF
:101F900064FB20680169C943490609D4C168C94383
:101FA000490605D46FF040010161204600F016F8A3
:101FB00020680169C94389060BD4C168C9438906F1
:101FC00007D46FF0200101612046BDE87040FFF7A3
:101FD00045BB70BD7047704701F094BB70477047B8
:101FE00038B5044620680168C1F30001C26802F4F4
:101FF0008072002904D01AB1E16B41F00101E16364
:102000000168C1F34002416901F0010122B119B137
:10201000E26B42F00402E2630268C2F3800222B182
:1020200019B1E26B42F00202E2630268C2F3C0023D
:1020300022B119B1E16B41F00801E1630168C1F31C
:102040004011C06800F0200019B110B1204600F026
:102050006BFB20680168C1F3C011C06800F080000C
:1020600019B110B1204600F087FC20680168C1F367
:102070008011C06800F0400019B110B1204600F096
:102080003EFBE06B002809D02068016840680090A2
:10209000012084F839002046FFF7A1FF38BD000079
:1020A00070B50446002C23D0A0693849384A394B12
:1020B00000281FD02068884208D0904206D098425D
:1020C00004D040F2031134A000F004FEA0690028FF
:1020D00022D0B0F5807F1FD0B0F5007F1CD0B0F5C6
:1020E000407F19D04FF482712BA000F0F3FD13E074
:1020F000012070BD206888420ED090420CD09842DA
:102100000AD03449884207D03349884204D04FF47A
:10211000847121A000F0DEFDA06838B1B0F5805FC9
:1021200004D04FF485711CA000F0D4FDE06920B10B
:1021300040F20B1118A000F0CDFD94F839000025F5
:1021400020B984F83850204600F048F8022084F87E
:1021500039002068C16821F40051C160204600F0B8
:102160003BFB2068016921F49041016120684169CD
:1021700021F02A0141612068C16841F40051C16029
:10218000E563012084F83900002070BD003801406B
:1021900000440040004800402E2E5C447269766581
:1021A00072735C53544D3332463178785F48414CFA
:1021B0005F4472697665725C5372635C73746D33ED
:1021C00032663178785F68616C5F756172742E6316
:1021D00000000000004C00400050004010B586B0E8
:1021E0000068114988421DD11048816941F480413D
:1021F0008161806900F4804001904FF4007002908A
:102200000220039003200590094C02A92046FEF706
:1022100015F82115029100210391049102A920468D
:10222000FEF70CF806B010BD003801400010024067
:10223000000801402DE9F04104460D46984694F807
:102240003900012804D0122802D00220BDE8F08114
:102250009DB192B194F83800012810D0012684F87D
:1022600038600027E76394F83900122809D022204B
:1022700084F83900A285E28536E00120E6E70220F5
:10228000E4E7322084F83900F4E7401EE085A068D6
:10229000B0F5805F08D0434600222021204600F0A0
:1022A000A0FBC8B10320D1E74346002220212046ED
:1022B00000F097FB08B10320C8E7206928B1206827
:1022C0004068C1B229806D1C0EE020684068C0F3F0
:1022D00008012980AD1C07E0206990B120684068A2
:1022E00000F07F0005F8010BE08D0028CDD194F8B7
:1022F000390032280AD084F8396084F83870002018
:10230000A4E72068406805F8010BEDE7122084F887
:102310003900F2E770472DE9F04104460D46984632
:1023200094F83900012804D0222802D00220BDE808
:10233000F0819DB192B194F83800012810D00126A7
:1023400084F838600027E76394F83900222809D020
:10235000122084F83900A284E2842EE00120E6E70E
:102360000220E4E7322084F83900F4E7401EE084DC
:10237000A068B0F5805F08D0434600228021204647
:1023800000F02FFBA8B10320D1E7434600228021B3
:10239000204600F026FB08B10320C8E72888216802
:1023A000C0F308004860206908B16D1C05E0AD1C51
:1023B00003E0216815F8010B4860E08C0028D5D1B6
:1023C000434600224021204600F00BFB08B10320C9
:1023D000ADE794F83900322805D084F8396084F8E4
:1023E00038700020A3E7222084F83900F7E770470F
:1023F000FEE7000082B00D48816941F0040181616F
:10240000806900F0040001900A48094901604FF416
:10241000E131416000218160C16001610C224261B3
:102420008161C16102B0FFF73BBE000000100240B5
:1024300000380140E4000020FEE770470907090E5C
:10244000002806DA00F00F0000F1E02080F8141DEB
:10245000704700F1E02080F80014704730B585B077
:102460002148C16941F48021C161C16901F4802121
:102470000091816941F008018161816901F00801E1
:102480000091816941F008018161806900F00800D4
:1024900000904FF480600190022002900324049485
:1024A000124D01A92846FDF7C9FEE914019100214A
:1024B0000291039101A92846FDF7C0FE00220421E4
:1024C0002846FEF773F8042101910121029104943A
:1024D00001A92846FDF7B2FE002204212846FEF796
:1024E00065F805B030BD000000100240000C01404E
:1024F00010B5FFF7B3FF114C0F4820604FF4165092
:1025000060600020A060E06020610C216161A0613A
:10251000E0612046FFF7C4FD2068C16841F4005126
:10252000C160012200212720FEF716F9BDE8104006
:102530002720FEF7DFB800000048004060010020BF
:1025400010B5FEF771F8BDE81040FFF782B830B55E
:102550008FB0012005900004069000240794022506
:102560000C950D904FF4E0100E9005A8FEF716FCA8
:102570000F200090019502946802039004940221B8
:102580006846FEF779F9FEF77BFB4FF47A71B0FBF2
:10259000F1F0FFF74AF80420FFF710F80022114687
:1025A000501EFEF7D9F80FB030BD00000D4801688D
:1025B00041F00101016041680B4A1140416001682E
:1025C0000A4A11400160016821F4802101604168DC
:1025D00021F4FE0141604FF41F0181600449C003F2
:1025E00008607047001002400000FFF8FFFFF6FE91
:1025F00008ED00E010B51C20FEF770F8BDE81040B3
:102600000148FFF730BC0000240100202DE9F04113
:1026100002681B4D1B4E1C4FDFF870C01C4B4FF067
:102620008048A84209D0984207D0404505D0B04222
:1026300003D0B84201D0604503D122F070044A684B
:102640002243A84209D0984207D0404505D0B04265
:1026500003D0B84201D0604503D122F44074CA6867
:10266000224302608A68C2620A688262A84201D07C
:10267000984201D10969016301214161BDE8F081FE
:10268000002C01400004004000080040000C004005
:102690000034014010B5846824F47F4442EA0322E8
:1026A0000A432243826010BD826822F070020A430E
:1026B00042F007018160704710B5036A046A24F094
:1026C00001040462846924F0F00444EA021423F053
:1026D0000A020A438461026210BD10B5036A23F046
:1026E000100303628469036A24F4704444EA0232EA
:1026F00023F0A00343EA01118261016210BD10B50D
:102700000168CA6822F04002CA6090F83910322984
:1027100006D0012180F83910FFF769FE002010BDB6
:10272000222180F83910F7E710B590F839102229E6
:1027300003D0322901D0022010BD8168B1F5805F3D
:1027400011D0016919B30168496801F07F03816AFA
:102750004A1C82620B70C18D491E0904090CC18597
:102760001CD0002010BD816A02693AB1026852682B
:10277000D2B20A80816A491C8162ECE70268526821
:10278000C2F308020A80816A891C8162E3E701685A
:102790004A68816A4B1C83620A70DCE70168CA6878
:1027A00022F02002CA6090F83910322910D0016856
:1027B000CA6822F48072CA6001684A6922F0010284
:1027C0004A61012180F83910FFF7A4FD002010BDF7
:1027D000122180F83910F7E72DE9F04104465549F8
:1027E0006068884204D340F24E7153A000F072FA40
:1027F000E06838B1B0F5005F04D040F24F714EA0F0
:1028000000F068FA206950B1B0F5806F07D0B0F5DC
:10281000C06F04D04FF4EA6147A000F05BFA606932
:1028200030F00C0100D120B940F2517142A000F00B
:1028300051FA20680169E26821F4405111430161B5
:10284000A16820690143606901432068C26841F2C0
:102850000C639A430A43C26020684169A26921F46B
:102860004071114341614349206864253226884202
:1028700030D1FEF735FA00EBC00101EB00106168C2
:102880008900B0FBF1F0B0FBF5F7FEF729FA00EB99
:10289000C00101EB001061688900B0FBF1F8FEF7A0
:1028A0001FFA00EBC00101EB001061688900B0FB6A
:1028B000F1F0B0FBF5F06FF01801484308EB800031
:1028C00006EB0010B0FBF5F0216867F31F1088607D
:1028D000BDE8F081FEF7EEF900EBC00101EB00105E
:1028E00061688900B0FBF1F0B0FBF5F7FEF7E2F9A3
:1028F00000EBC00101EB001061688900B0FBF1F84A
:10290000FEF7D8F900EBC00101EB00106168890007
:10291000B0FBF1F0B0FBF5F06FF01801484308EBA5
:10292000800006EB0010B0FBF5F0216867F31F1084
:102930008860CDE721AA44002E2E5C44726976653A
:1029400072735C53544D3332463178785F48414C52
:102950005F4472697665725C5372635C73746D3345
:1029600032663178785F68616C5F756172742E636E
:10297000000000000038014090F83910122903D0FF
:10298000322901D0022070478168B1F5805F0CD0F8
:10299000016A4A1C0262026809785160C18C491EB2
:1029A0000904090CC18410D019E0016A0268098881
:1029B000C1F308015160016919B1016A491C016242
:1029C000ECE7016A891C0162E8E70168CA6822F045
:1029D0008002CA600068C16841F04001C160002007
:1029E00070472DE9F04704460F4692461D46FDF715
:1029F00015FE06464FF000084FF00109BAF1000F2E
:102A000023D04AE0681C20D025B1FDF707FE801BCB
:102A1000A8421AD92068C16821F08001C1602068ED
:102A2000C16821F02001C1602068C16821F4807173
:102A3000C1602068416921F00101416184F8399049
:102A400084F838800320BDE8F0872068006837EA02
:102A50000000D7D126E0681C1FD025B1FDF7DEFDB0
:102A6000801BA84219D92068C16821F08001C1608B
:102A70002068C16821F02001C1602068C16821F48C
:102A80008071C1602068416921F00101416184F8D1
:102A9000399084F838800320D5E72068006837EA49
:102AA0000000D8D00020CEE710B50A4C2068C068DE
:102AB000800601D500F02CFE2068C068000601D514
:102AC00000F02CFE2720FDF709FEBDE8104001486C
:102AD000FFF786BA60010020FEE700000FB4054B47
:102AE00010B503A9044A029800F018F810BC5DF86C
:102AF00014FB0000FD350008E000002002E008C8DB
:102B0000121F08C1002AFAD170477047002001E067
:102B100001C1121F002AFBD1704700002DE9FF4FB1
:102B20008BB09A460F460546002606E025280BD0B6
:102B300052460D9990476D1C761C28780028F5D1D7
:102B40000FB03046BDE8F08F0024A0460122604956
:102B500000E0044315F8013F203B02FA03F008426D
:102B6000F7D128782E2817D115F8010F44F0040466
:102B70002A280ED06FF02F022878A0F13001092901
:102B80000AD808EB880102EB410100EB01086D1C3B
:102B9000F2E757F8048B6D1C287869283ED006DCD4
:102BA0000028CDD063280BD0642804D136E07328E8
:102BB00010D075284BD052460D999047761C85E071
:102BC00017F8040B8DF8000000208DF80100E9468D
:102BD000012003E057F8049B4FF0FF3061074FF0EE
:102BE000000401D40AE0641C44450DDA8442FADB97
:102BF00019F804100029F6D106E0641C8442FCDBBD
:102C000019F804100029F8D1264404E019F8010B42
:102C100052460D999047641EF8D257E001CF4FF00D
:102C20000A0B002802DA40422D2102E0210504D5DA
:102C30002B218DF82410012103E0E10705D020218C
:102C4000F7E70DF1200908910CE00021F9E701CF29
:102C50004FF00A0BF9E75946FDF798FA01F13002F7
:102C600009F8012D0028F6D1ADEB090000F1200B89
:102C7000600701D44FF00108D84502DDA8EB0B0036
:102C800000E000208046002406E009A85246005DCE
:102C90000D999047641C761C08988442F5DB04E08B
:102CA000302052460D999047761CB8F10001A8F1EA
:102CB0000108F5DC05E019F8010B52460D99904723
:102CC000761CBBF10001ABF1010BF4DC6D1C34E7A9
:102CD000092801000A46014601A0FFF7FFBE0000D7
:102CE00057726F6E6720706172616D657465727383
:102CF0002076616C75653A2066696C6520257320C5
:102D00006F6E206C696E652025640D0A000000005E
:102D100070B50D4616460024012080F310880C493A
:102D20000A20C87007223146284600F0ABFE012871
:102D300001D0032406E044F6206000F0BBFE012829
:102D400000D00324002080F31088204670BD0000CE
:102D5000140000202DE9F04106460F46904600245D
:102D6000012080F31088104DA888FF2803D99D21E9
:102D70000EA0FFF7AFFFA888032804D3A988A8688E
:102D800000F0B3FC30B10524002080F31088204609
:102D9000BDE8F081AB6813F8010B3070A888801E85
:102DA000A8F800003B60EFE7140000202E2E5C4DD9
:102DB0006964646C6577617265735C6D6F6462757C
:102DC000735C61736369695C6D6261736369692EC9
:102DD000630000002DE9F041074608460025012365
:102DE00083F31088104C6378002B06D00525002053
:102DF00080F310882846BDE8F081401EE06001267F
:102E0000E6800770E1881144E180E18800F06DFC04
:102E10000146E088421CE280A2681154267001211C
:102E2000002000F097FCE2E71400002010B501201C
:102E300080F31088002100F08DFC044900204870C8
:102E400080F31088BDE8104000F0FEBD14000020A3
:102E500010B5012080F310880021084600F07AFCAC
:102E600000F0A4FC002080F3108810BD70B5002491
:102E7000054D2878012802D00624204670BD286917
:102E8000804700202870F8E7340000202DE9F04149
:102E90000C4600262188052903D003263046BDE8CC
:102EA000F08141780A0281781143491C8FB2C178C0
:102EB000090202790A43511E40F2CF73994221D28E
:102EC00000212180012100F8011B23885B1C238045
:102ED000530703D001EBD201CDB201E0C2F3C70525
:102EE00000F8015B2188491C21800023394600F04D
:102EF00021FB18B100F0B4FB0646CFE72088284438
:102F00002080CBE70326C9E770B50C460026218850
:102F1000052902D00326304670BD41780902827827
:102F20000A43521C93B2C178090202790A43511E26
:102F300040F2CF75A94221D200212180022100F860
:102F4000011B2188491C2180510704D0012101EB7C
:102F5000D201CDB201E0C2F3C70500F8015B2188C0
:102F6000491C2180194600F0F3FA18B100F078FBF3
:102F70000646D0E7208828442080CCE70326CAE70D
:102F800070B50C4600262188052902D0032630465C
:102F900070BD41780A0281781143491C89B20579D4
:102FA0006A1E7C2A1AD800222280032202702288FC
:102FB000521C22806A004270801C2288521C22808F
:102FC00000232A4600F0D4FA18B100F049FB064667
:102FD000DDE7208800EB45002080D8E70326D6E710
:102FE00070B50C4600262188052902D003263046FC
:102FF00070BD41780A0281781143C27812020579C6
:1030000015436A1E7C2A19D20022228004220270F3
:103010002288521C22806A004270801C2288521C26
:1030200022802A4600F0B4FA18B100F019FB0646D7
:10303000DDE7208800EB45002080D8E70326D6E7AF
:103040002DE9F04104460D46002728880A2842D37E
:1030500060780102A0780843401C1FFA80F8E078ED
:1030600000022679064360790102A0790843401CDA
:1030700081B2E0790002227A0243607A731E7C2BCF
:1030800028D83AB3792A25D8B0EB420F22D10123B0
:1030900004F10A0000F06CFAB8B92046002129803A
:1030A000172101702988491C298071004170801CFA
:1030B0002988491C298000233246414600F058FAED
:1030C00018B9298801EB4601298020B100F0C8FA1F
:1030D000074600E003273846BDE8F08170B50C468E
:1030E000054D0649401C2A88FDF73EF82888401CFB
:1030F0002080002070BD000024000020A0010020DE
:1031000038B500240988052902D00324204638BD9B
:103110004178090282780A43521C91B202791AB9A5
:10312000C278FF2A02D00AB10324EFE700228DF80B
:103130000120C078FF280CD08DF8002001231A460A
:10314000684600F0F7F90028E0D000F089FA04465C
:10315000DCE701208DF80000F0E710B500240988B5
:10316000052902D00324204610BD41780A02817847
:103170001143491C89B201231A46C01C00F0F8F91A
:103180000028F0D000F06CFA0446ECE72DE9F0419D
:103190000D4600242988052927D94178090282781B
:1031A0000A43521C91B2C278130202791A4346793B
:1031B000530704D0012303EBD203DBB201E0C2F3D7
:1031C000C703571EB7F5F66F0DD2B3420BD10123DB
:1031D000801D00F0AFF918B100F042FA044605E096
:1031E0000520288002E0032400E003242046BDE8F7
:1031F000F08170B50D460024298806291FD3417837
:10320000090282780A43521C91B2C27813020279F1
:103210001A434379561E772E0FD85606360E9E4215
:103220000BD10123801D00F0A3F918B100F018FAAA
:10323000044605E00520288002E0032400E0032482
:10324000204670BD2DE9F04114461A46069B0646FD
:10325000002901D0F72901D9022437E01E4D084684
:103260002971002126B1012E16D0022444B32DE08D
:103270001A4F2F611A4F6F611A4FEF601A4FAF61EB
:10328000E9611A4929621A4969621A49A962214603
:1032900000F096F80446E9E7174F2F61174F6F616A
:1032A000174FEF60174FAF61E9611749296217495E
:1032B00069621749A9622146FFF72AFD0446D5E74E
:1032C00000F0BAFB28B16E71012028702046BDE8DD
:1032D000F0810324FAE7000034000020F5340008F0
:1032E00019350008913400080D340008C13A00086F
:1032F000D93B0008613B00082D2E0008512E000824
:10330000D52D0008552D0008E53700083D39000887
:10331000DD380008F8B5294D2878002801D00620AE
:10332000F8BD684600F07AFB012844D19DF8000002
:10333000E8B3012802D002283DD10FE01F4AAB6953
:10334000921D911CC81F984788BB687829798842CC
:1033500000D060BB022000F077FB2CE0A868047866
:10336000AC700126EE700021144B2C3313F8312081
:1033700062B1A24207D103EBC1014A680F49891D1E
:103380009047E87002E0491C1029EFDB687870B1C3
:10339000E97849B1A878EE80AA6840F08000107002
:1033A000E888431CEB801154EA88287900E002E0A9
:1033B000D5E9021398470020F8BD00003400002032
:1033C00070B50E4615460024012080F310880822AF
:1033D0002946304600F056FB012801D003240EE0B8
:1033E000B5F5964F01D9232003E007496800B1FBEA
:1033F000F0F080B200F05EFB012800D00324002032
:1034000080F31088204670BDA07F17002DE9F041A1
:1034100080460E4617460024012080F31088114D87
:10342000A888FF2803D99D210FA0FFF753FCA88887
:10343000042804D3A988154800F076F930B1052492
:10344000002080F310882046BDE8F0810F48007806
:1034500088F80000A888C01E38800C48401C3060E6
:10346000EEE70000280000202E2E5C4D6964646C9D
:103470006577617265735C6D6F646275735C72749D
:10348000755C6D627274752E63000000C0010020CF
:103490002DE9F041074608460025012383F31088F3
:1034A000124C6378012B06D00525002080F310888C
:1034B0002846BDE8F081401EA060012666800770A6
:1034C000618811446180618800F02EF961884A1C8E
:1034D0006280074A5054030A6088411C618013547B
:1034E00026700121002000F035F9DEE728000020D9
:1034F000C001002010B5012080F310880548002489
:1035000044700021012000F025F900F05DF984F3FA
:10351000108810BD2800002010B5012080F310880D
:103520000021084600F016F900F040F9002080F371
:10353000108810BD10B502A0FFF7D0FA012010BD11
:10354000654D42526567436F696C7343420A0000E0
:1035500010B502A0FFF7C2FA012010BD654D42521E
:103560006567446973637265746543420A000000CD
:1035700010B502A0FFF7B2FA012010BD654D42520E
:103580006567486F6C64696E6743420A000000001B
:103590002DE9F04105460F461446002612A0FFF71C
:1035A0009DFA15481121018022214180332181801B
:1035B0004421C1803919042911D8811E0988791A3A
:1035C0000AE030F81120120A2A7010F811206A70EF
:1035D000AD1C491C641EA4B2002CF2D100E00126EF
:1035E0003046BDE8F0810000654D42526567496E86
:1035F00070757443420A00000A00002013B54FF6AC
:10360000FF73012269460248FEF785FE00981CBD43
:10361000E400002008B5FDF70FF8FEF798FFFEF76D
:10362000E9FE09A0FFF75AFAFEF762FF00204FF407
:103630001653032201210090FFF704FEFFF716FC4A
:10364000FFF768FEFCE70000667265656D6F6462F7
:10365000757320D2C6D6B2B2E2CAD40A0000000006
:10366000002805D0012805D0072805D00420704780
:1036700000207047022070470620704710B50928C7
:1036800002D83030C0B210BDA0F10A01052902D81D
:103690003730C0B210BD40F2D11102A0FFF71AFBC3
:1036A000302010BD2E2E5C4D6964646C65776172AC
:1036B00065735C6D6F646275735C61736369695C8B
:1036C0006D6261736369692E63000000A0F13001CF
:1036D000092901D8C8B27047A0F14101052902D8D3
:1036E0003738C0B27047FF207047002203E010F85F
:1036F000013B1A44D2B2491E89B2F8D25042C0B23C
:103700007047000001480068004700005C0000208E
:10371000014800680047000054000020014800688C
:10372000004700005800002070B5FF23FF22084D1D
:1037300005F5807605E010F8014B54402A5D5A40AB
:10374000335D491E89B2F6D242EA032070BD000003
:103750006C3C000870B50D46134C124B00282268D3
:1037600009D0D06840F02000D06000220421184623
:10377000FCF71CFF08E0D06820F02000D060012298
:1037800004211846FCF712FF2DB12068C16841F0F2
:103790008001C16070BD2068C16821F08001C160F6
:1037A00070BD0000000C01406001002010B505480C
:1037B000FEF7D8F803480021026851620068891EAC
:1037C000016110BD2401002005486FF0010102686D
:1037D00011610068002141620148FEF76DB80000E8
:1037E00024010020F8B50026314D2878002803D0A8
:1037F000E42130A0FFF76EFA684600F02DF96878F2
:103800000024012788B3012802D002284ED12DE0E0
:10381000FFF7DAFF9DF800003A2808D00D2809D0FC
:10382000FFF754FFA97841B101293FD112E0AC70F4
:10383000AC803BE00220687038E0A988FF2905D8F9
:10384000AA88A96800018854AF702FE06C70FFF758
:10385000ADFF2BE0AA88A96811440A7802430A70D8
:10386000A888401CA880AC7020E016E09DF80000FD
:10387000E978884207D1FFF799FF6C70012000F0CA
:10388000E3F8064612E03A2801D06C700EE0AC7006
:10389000AC806F70FFF798FF08E09DF800003A28B1
:1038A00004D1FFF791FFAC80AC706F703046F8BD6B
:1038B000140000202E2E5C4D6964646C6577617283
:1038C00065735C6D6F646275735C61736369695C79
:1038D0006D6261736369692E6300000010B50C4965
:1038E0004878012810D002280ED04878012807D047
:1038F0004878022804D04FF4D47106A0FFF7EAF903
:10390000FFF754FF002010BD00204870F8E70000CA
:10391000140000202E2E5C4D6964646C6577617222
:1039200065735C6D6F646275735C61736369695C18
:103930006D6261736369692E6300000070B50026D3
:103940002B4C6078002804D04FF4A87129A0FFF711
:10395000C1F920780025052847D2DFE800F04203AE
:103960000A3137003A2000F08FF802202070A5704D
:103970003BE0E088F0B1A07810B1012835D109E032
:10398000E06800780009FFF779FE00F07DF801207B
:10399000A0702AE0E068007800F00F00FFF76EFEEC
:1039A00000F072F8E068401CE060A570E088401EFE
:1039B000E0801AE00D2000F067F80320207014E08A
:1039C000E07800F061F8042020700EE025700320FC
:1039D00000F03AF8064600210120FFF7BBFE2570F3
:1039E00003E000210120FFF7B5FE304670BD000066
:1039F000140000202E2E5C4D6964646C6577617242
:103A000065735C6D6F646275735C61736369695C37
:103A10006D6261736369692E6300000002460020D5
:103A200004494B78002B04D00878107000204870AF
:103A30000120704712000020024900204870012038
:103A40007047000012000020024901224A700870ED
:103A5000012070471200002010B504460022042106
:103A60000648FCF7A3FD01231A4621460448FEF749
:103A7000E1FB08B1002010BD012010BD000C014089
:103A8000600100200120704701B501220421074890
:103A9000FCF78CFD01231A4669460548FEF73BFCFE
:103AA00008B1002008BD012008BD0000000C014045
:103AB0006001002010B5FCF793FB012010BD000051
:103AC00038B500251B4C2078002803D0E7211AA028
:103AD000FFF700F96846FFF7BFFF617839B11F486B
:103AE00001290AD0022915D0032921D102E0FFF7CC
:103AF0006BFE1DE0FFF768FE1AE00021A1809DF833
:103B00000030A1884A1CA280435402206070FFF755
:103B10005BFE0DE0A188FF2906D89DF80030A18842
:103B20004A1CA280435401E003206070FFF74CFE62
:103B3000284638BD280000202E2E5C4D6964646C38
:103B40006577617265735C6D6F646275735C7274C6
:103B5000755C6D627274752E63000000C0010020F8
:103B600070B50024124D6978002916D0022919D0A9
:103B700003290CD0687850B16878022807D068789B
:103B8000032804D040F25B110AA0FFF7A3F8FFF767
:103B90000DFE01206870204670BD0020FFF754FF25
:103BA0000446F4E70120FFF74FFF0446EFE700006B
:103BB000280000202E2E5C4D6964646C657761726C
:103BC00065735C6D6F646275735C7274755C6D6255
:103BD0007274752E6300000070B50025154C607876
:103BE000012804D04FF4917113A0FFF773F82078E7
:103BF00010B101281CD104E000210120FFF7AAFD2B
:103C000016E0608850B1A0680078FFF73DFFA0681B
:103C1000401CA0606088401E608009E00320FFF720
:103C200013FF054600210120FFF794FD00202070BE
:103C3000284670BD280000202E2E5C4D6964646CFF
:103C40006577617265735C6D6F646275735C7274C5
:103C5000755C6D627274752E6300000000000000D8
:103C600001020304010203040607080900C18140A0
:103C700001C0804101C0804100C1814001C080413C
:103C800000C1814000C1814001C0804101C080412C
:103C900000C1814000C1814001C0804100C181401C
:103CA00001C0804101C0804100C1814001C080410C
:103CB00000C1814000C1814001C0804100C18140FC
:103CC00001C0804101C0804100C1814000C18140EC
:103CD00001C0804101C0804100C1814001C08041DC
:103CE00000C1814000C1814001C0804101C08041CC
:103CF00000C1814000C1814001C0804100C18140BC
:103D000001C0804101C0804100C1814000C18140AB
:103D100001C0804101C0804100C1814001C080419B
:103D200000C1814000C1814001C0804100C181408B
:103D300001C0804101C0804100C1814001C080417B
:103D400000C1814000C1814001C0804101C080416B
:103D500000C1814000C1814001C0804100C181405B
:103D600001C0804101C0804100C1814000C0C1014B
:103D7000C30302C2C60607C705C5C404CC0C0DCDDB
:103D80000FCFCE0E0ACACB0BC90908C8D81819D94B
:103D90001BDBDA1A1EDEDF1FDD1D1CDC14D4D5157B
:103DA000D71716D6D21213D311D1D010F03031F16B
:103DB00033F3F23236F6F737F53534F43CFCFD3D9B
:103DC000FF3F3EFEFA3A3BFB39F9F83828E8E9298B
:103DD000EB2B2AEAEE2E2FEF2DEDEC2CE42425E53B
:103DE00027E7E62622E2E323E12120E0A06061A1AB
:103DF00063A3A26266A6A767A56564A46CACAD6D5B
:103E0000AF6F6EAEAA6A6BAB69A9A86878B8B979CA
:103E1000BB7B7ABABE7E7FBF7DBDBC7CB47475B5FA
:103E200077B7B67672B2B373B17170B050909151EA
:103E30009353529296565797559594549C5C5D9D1A
:103E40005F9F9E5E5A9A9B5B99595898884849890A
:103E50004B8B8A4A4E8E8F4F8D4D4C8C44848545BA
:103E60008747468682424383418180408C3E0008DA
:103E700000000020E4000000FC2A0008703F000859
:103E8000E4000020DC1100000C2B000800A24A0412
:103E90000000000000000000000000000000000022
:103EA0000000000000000000C00100200000000031
:103EB0000000000000000000000000000000000002
:103EC00002000000000000000000000000000000F0
:103ED00000000000000000000000000000000000E2
:103EE00000000000000000000000000011000000C1
:103EF000DD30000804000000E12F0008030000008E
:103F0000812F000810000000F331000806000000B7
:103F10005B3100081700000041300008010000007C
:103F20008D2E000805000000013100080F00000080
:103F30008D31000802000000092F00080000000079
:103F40000000000000000000000000000000000071
:103F50000000000000000000000000000000000061
:103F60000000000000000000000000000000000051
:0400000508000131BD
:00000001FF
